:020000040800F2
:1000000068070020D9000008AD2500081D2200085F
:1000100000000000000000000000000000000000E0
:10002000000000000000000000000000052A000899
:1000300000000000000000000D280008092A000848
:10004000EB000008EB000008EB000008EB000008E4
:10005000EB000008EB000008EB000008EB000008D4
:1000600000000000EB000008EB000008EB000008B7
:10007000EB000008EB000008EB000008EB000008B4
:10008000EB000008EB000008EB0000080000000097
:10009000EB000008EB000008EB000008EB00000894
:1000A000EB000008EB000008EB000008EB00000884
:1000B000EB000008EB00000800000000000000005A
:1000C0000448854600F074FB0048004709440008D6
:1000D000C046C046680700200448804704480047DF
:1000E000FEE7FEE7FEE7FEE7FEE7FEE7312B00084E
:1000F000C100000830B50B46014600202022012433
:1001000009E00D46D5409D4205D31D469540491B4B
:100110002546954040191546521E002DF1DC30BD94
:10012000F0B51FB40646002082B005464024019178
:1001300000901BE0019922460F46304600F074FA09
:10014000049A059B801A994110D3104619462246FD
:1001500000F05AFA361A8F410197224601200021F9
:10016000009F00F051FA38184D4100902046641E5F
:100170000028DFDC019B00982946324607B0F0BD1D
:10018000F0B51FB486B00020009001900290069850
:10019000069980B204900798090C020400141143D8
:1001A00007900027089D099806913E463C4603901B
:1001B0000398A9B20204000C039004982D0C154377
:1001C00048430021224600F01FFAC719714110343C
:1001D0000E46402CECDB3846029A00F015FA009AE5
:1001E000019B8018009059410298019110300290B3
:1001F0004028CCDB00980BB0F0BD03460B439B07B7
:1002000003D009E008C9121F08C0042AFAD203E08B
:100210000B780370401C491C521EF9D27047D2B2B1
:1002200001E00270401C491EFBD270470022F6E735
:1002300010B513460A4604461946FFF7F0FF20465C
:1002400010BD0000F0B507460846584087B0C00F03
:10025000049048000E46590040084908BC1A8841DD
:1002600005D2384631461E4617460B460246580010
:10027000400810434DD0300D039040055900400D0B
:10028000490D0590401A0290402873DA18030121A5
:10029000000B09050843019004980092002806D03D
:1002A0001146019A49420020904100910190029824
:1002B00040210A1A0199009800F0A6F905460C465B
:1002C0006B4607CB00F0C1F9C0197141039A0E0DBE
:1002D0000023D71756401A467A40164344D0049A52
:1002E000002A2DD0029A012A039A15DC1205C01AA1
:1002F000914101263605001C7141D20F059ED2079F
:100300000093019202962A46234600F0FFF907B0B7
:10031000F0BD38463146FAE71605234A0F46B218B3
:10032000C01AB74101210905001C4F4100187F4147
:10033000114618187941E20F10436D19644113E01A
:10034000E2076D0815436408C2071443039A0126A7
:100350001205C01A91413605001C7141CE074008B4
:1003600030434908C01851412A46234600F0C1F9DC
:10037000CDE7FFE7049801224000C117121A0023BD
:100380008B4104983146C417381AA141EEE730B4C6
:100390000124E407634030BC54E730B40124E4078F
:1003A000614030BC4EE700000000E0FFF0B51FB434
:1003B00088B00B990998002448400999C00F49005A
:1003C00049080991C0070B990090490049080B9111
:1003D00009990898A64608431CD00B990A98084327
:1003E00018D0099801244000420D4800410D099899
:1003F00024050003000B204309900B980003000B19
:1004000020430B9050181C494018002201901446BC
:10041000104605E0002001460DB0F0BD032801DACA
:10042000034600E003239C46C11A0AAE0AE05F00BF
:1004300008ADED5B4F00F75B7D430027AA187C41B8
:10044000491C5B1E6145F2DD410004AB5A52210498
:10045000120C0A43240C401C0828DFDB0198029090
:100460000099704601910090059B049A079906989F
:1004700000F04CF9D0E700000DFCFFFFF0B50C4692
:100480005C4085B0E40FE40703944C000026640848
:1004900059009446490802460296224321D06246FA
:1004A0000A431ED06200570D4A000E032303550D68
:1004B000012402462C492405781B1B0B360B4018DF
:1004C00023432643614600901C46501AB44103D38F
:1004D0000098401C009002E0921800985B410028B0
:1004E00003DA0020014605B0F0BD00200121090516
:1004F0000746864611E064461D46141BB54106D3E7
:100500006546521BB341744607430C43A646CD07CC
:1005100040084908284392185B4105460D43EAD13B
:100520001046184313D060461946504071400843A6
:1005300006D06046101AB34106D20122002306E01D
:1005400000220123DB0702E00122D243531000986E
:1005500074460105381C6141029C039D00196941E4
:1005600000F0C7F8BFE70000FD03000010B500224F
:100570009623114600F084F810BD00000EB5054921
:100580000291002100910A460B46019100F0BEF84D
:1005900003B000BD33040000C20F4100400201233C
:1005A000400ADB05D207090EC0187F2901DA0020B6
:1005B0007047962903DC9623591AC84001E0963902
:1005C0008840002AF4D04042704700004A000903E6
:1005D0000123090B1B051943094B10B5520D9A4213
:1005E00001DA002010BD064B34339A4203DC9A1A1C
:1005F00000F01AF810BD03495118884010BD0000E2
:10060000FF030000CDFBFFFF10B5202A04DB0146ED
:10061000203A9140002010BD914020239C1A0346AF
:10062000E3401943904010BD10B5202A04DB084672
:10063000203AD040002110BD0B46D340D0402024AA
:10064000A21A91400843194610BD10B5202A06DBB6
:10065000CB170846203A1041C1170B4306E00B4662
:100660001341D0402024A21A91400843194610BDDE
:10067000002904DA401C490001D1400840007047BD
:1006800070B40024050C05D11024000402D1002907
:1006900021D01124050E01D100020834050F01D12B
:1006A0000001241D850F01D18000A41C002801DB5E
:1006B0004000641C002908D020252E1B0D46F54063
:1006C000A14000D001212943084301061B1B000A59
:1006D000DB1D02D5002070BC7047DB0518188018A0
:1006E0000029F8DA401C4900F5D170BC40084000F0
:1006F000704710B5002B08DA0024401C61419218A5
:100700005B411A4301D14008400010BDF0B51FB451
:1007100082B005460C0003D0084602F079FA02E0E8
:1007200002F076FA20300246009021462846FFF774
:100730006BFF049B059A04460F4618431143084378
:1007400014D0184610431BD0009840210A1A1846AE
:100750000599FFF769FF05460E46009A059904982A
:10076000FFF752FF084305D0012004E02046394638
:1007700007B0F0BD0020C11705430E432C4337439B
:1007800000990E986305401A7905E40A00220C438B
:10079000FD0A0A3002D500200146E9E701051019DB
:1007A00069410C9C0D9D00196941FFF7A2FFDFE72D
:1007B000064C0125064E05E0E36807CC2B430C3CB4
:1007C00098471034B442F7D3FFF77EFC005100087D
:1007D0002051000830B502460B46002000219479D4
:1007E000112C04D0122C11D0132C2DD11DE009E0B6
:1007F000545C174D6D5CAC4201D0002000E000BF9E
:100800004C1CE1B29942F3DB01201EE009E0545C8C
:10081000104D6D5CAC4201D0002000E000BF4C1CCC
:10082000E1B29942F3DB02200FE009E0545C0A4D8B
:100830006D5CAC4201D0002000E000BF4C1CE1B276
:100840009942F3DB032000E000BF00BF30BD000091
:100850006B000020790000207200002072B600BFFB
:10086000FEE7000070B5044600F01EF90646254676
:10087000681C002802D0054800782D1800BF00F041
:1008800013F9801BA842FAD370BD00009800002025
:1008900070B50346002200240020DFE001269640C8
:1008A0000D6835402C46002C77D04D68012D08D0BE
:1008B0004D68022D05D04D68112D02D04D68122DC6
:1008C00018D1986856000325B5400646AE43304619
:1008D0005600CD68B540284398605868012595407A
:1008E0000646AE43304610264D6835402D099540EA
:1008F00028435860D86856000325B5400646AE43E5
:10090000304656008D68B5402843D8604D68022DAA
:1009100002D04D68122D15D1D508AE001D462035E8
:10092000A8595507EE0E0F25B5400646AE43304692
:100930005607F60E0D69B5402843D508AD001E4692
:1009400020367051186856000325B5400646AE4360
:1009500030460D79AD07AD0F5600B54028431860FD
:10096000012636074D683540B54276D13E4D6D6B58
:10097000012635433C4E75633C4D9608B600A85998
:1009800095072E0F0F25B5400646AE433046052588
:100990002D07AB4202D100251AE05EE0344DAB4298
:1009A00001D1012514E0334DAB4201D102250FE006
:1009B000314DAB4201D103250AE0304DAB4201D1AC
:1009C000042505E02E4DAB4201D1052500E00625AA
:1009D0009607360FB5402843244D9608B600A85117
:1009E000284D28680546A5432846012636044D684B
:1009F0003540B54202D1054625432846214D2860A1
:100A000068680546A5432846012676044D683540AA
:100A1000B54202D10546254328461A4D6860A868AC
:100A20000546A5432846012636054D683540B542A2
:100A300002D1054625432846124DA860E8680546C0
:100A4000A5432846012676054D683540B54202D1BA
:100A50000546254328460B4DE860521C0D68D540DD
:100A6000002D00D01AE770BD0010024008000140C0
:100A70000004005000080050000C0050001000500E
:100A8000001C005000040140024613690B40002B7B
:100A900001D0012000E000207047002A01D08161D0
:100AA00000E0816270470000014800687047000064
:100AB0009000002002464120805C20282FD100BFFA
:100AC0004020805C012801D1022070470123402092
:100AD000835400BF242341208354106800684008D9
:100AE0004000136818601068006801231B039843D6
:100AF000136818601068006808431368186010686D
:100B00000068012318431368186020234120835490
:100B100000BF00234020835400BF0020D5E70220FF
:100B2000D3E710B502460B464120805C20282ED129
:100B300000BF4020805C012801D1022010BD0124AB
:100B40004020845400BF242441208454106800684D
:100B50004008400014682060106801680F242402D7
:100B60000846A0430146180201431068016010685E
:100B7000006801242043146820602024412084540C
:100B800000BF00244020845400BF0020D6E702208C
:100B9000D4E7000010B50446002C01D1012010BD9F
:100BA0004120005D002805D100214020015520464C
:100BB00000F010F924214120015520680068400808
:100BC0004000216808600F21090660688843216899
:100BD0000861206880680121C90388432168886012
:100BE000E068012806D10121C903A06808432168F3
:100BF000886005E021218902A06808432168886097
:100C0000E068022802D180022168486020684068BC
:100C100014490843216848602068C0680121C9035D
:100C200088432168C860616920690843A169090295
:100C300008432168C860216AE069084321680860A8
:100C40002068006801210843216808600020606472
:100C50002021412001550020206300214220015520
:100C600000209CE700800002FFB581B004461646D4
:100C70001F464120005D202877D100BF4020005D45
:100C8000012802D1022005B0F0BD0121402001550C
:100C900000BFFFF709FF054619230122D1032046B3
:100CA000009501F043FB002801D00120EBE7212152
:100CB00041200155102142200155002060646662E8
:100CC00067856063608DFF280BD9FF2020853F4832
:100CD0000090208DC2B20B052046029901F00AFB5C
:100CE0000BE0608D208539480090208DC2B2012331
:100CF0005B062046029901F0FDFA43E02A462046B1
:100D00000A9901F06CFB002801D00120BBE7606A62
:100D1000007821688862606A401C6062608D401EB5
:100D20006085208D401E2085608D00282AD0208D72
:100D3000002827D100950022802120460A9B01F03F
:100D4000F5FA002801D001209DE7608DFF280DD91C
:100D5000FF20208500200090208DC2B201231B06B9
:100D60002046029901F0C6FA0CE02CE0608D208547
:100D700000200090208DC2B201235B06204602991C
:100D800001F0B8FA608D0028B8D12A4620460A99A9
:100D900001F0F8FA002801D0012074E72020216832
:100DA000C861206840680A490840216848602021DD
:100DB0004120015500214220015500BF402001552E
:100DC00000BF00205FE702205DE7000000200080F8
:100DD00000E800FE10B586B00446142101A8FFF714
:100DE00025FA2349206888423FD100BF2148C06AC4
:100DF000012108431F49C8620846C06AC007C00FE6
:100E0000009000BF00BF00BF0846C06A022108432F
:100E10001849C8620846C06A02210840009000BF15
:100E200000BFC8010190122002900120039003200E
:100E300004900720059001A905200007FFF728FD71
:100E400010200190122002900120039003200490B2
:100E50000720059001A90848FFF71AFD0548806B97
:100E60000121890708430349886306B010BD0000CB
:100E70000078004000100240000400500348006861
:100E80000349097840180149086070479000002024
:100E90009800002010B5002408480068402108434D
:100EA00006490860002000F00BF8002801D001245A
:100EB00001E000F02FF8204610BD000000200240A5
:100EC00070B50446104801787D20C000FFF712F984
:100ED000064631460D480068FFF70CF9054601F05B
:100EE00081F9002801D0012070BD042C07D2002216
:100EF0002146501E00F01EF80548046001E0012064
:100F0000F2E70020F0E70000980000209C0000209D
:100F1000940000200648406B0121084304494863BF
:100F20000846806B09040843014988637047000044
:100F30000010024070B504460D461646294620466C
:100F400001F0BCFE70BD0000F8B50446002720216A
:100F50002068084020287BD120680840202800D144
:100F600000BF8948806B012109070840002805D18E
:100F70008548806B0843844988630127834800685B
:100F8000FF2101310840002816D18048006808433D
:100F90007E490860FFF788FD064606E0FFF784FDFE
:100FA000801B642801D90320F8BD78480068FF2120
:100FB000013108400028F1D0734805680321090574
:100FC0000D4060680840A8420DD0091160680840D3
:100FD000884208D16C4800680121490408408842D1
:100FE00001D10120E0E7684840300069032109048D
:100FF00008400546002D3DD060680840A84239D021
:10100000202120680840202834D15F484030006902
:1010100003210904884305465B48403000690121EB
:10102000C904084358494031086108460069012154
:10103000C904884354494031086108460561801558
:1010400028408915884215D1FFF72EFD064608E095
:1010500038E0FFF729FD801B4D49884201D9032064
:10106000A2E7494840300069012149020840400A8E
:101070000028EED000BF00BF0321090460680840CB
:1010800088420AD1404800680901884303221205BA
:101090006168114008433C49086000BF3A4840304D
:1010A0000069032212046168114008433649403147
:1010B000086100BF012F05D13348806B8905884343
:1010C000314988632078C007C00F002809D02E4816
:1010D0004030C06880088000A16808432A49403138
:1010E000C860022120680840022809D12648403003
:1010F000C0680C218843E168084323494031C86037
:1011000004212068084004280AD11F484030C068E4
:10111000032189028843216908431B494031C86083
:1011200008212068084008280AD117484030C068C4
:101130000321090388436169084313494031C860AA
:10114000FF2101312068084088420AD10E48403012
:10115000C068032109048843A16908430A49403152
:10116000C86080212068084080280AD106484030A5
:10117000C068032189048843E1690843024940317A
:10118000C860002010E7000000100240007000401E
:1011900088130000F8B504460E46002C01D101204A
:1011A000F8BD83480068C007C00FB04218D280481D
:1011B00000684008400030437D490860FFF774FC38
:1011C000054607E0FFF770FC401B7A49884201D9C9
:1011D0000320E5E776480068C007C00FB042F1D1B0
:1011E000022120680840022807D17348C068F02116
:1011F0008843A16808437049C8602078C007C00FC1
:1012000000284CD06068022809D16B480068012191
:1012100049040840400C002824D10120C0E7606840
:10122000032809D164480068012149060840400E9E
:10123000002817D10120B3E76068012808D15E4873
:10124000006804210840800800280BD10120A7E78E
:1012500059480068012149020840400A002801D18C
:1012600001209DE75448C0688008800061680843F9
:101270005149C860FFF718FC0546606802280FD185
:1012800007E0FFF711FC401B4A49884201D90320BF
:1012900086E74948C0680C2108400828F1D134E0AD
:1012A000606803280FD107E0FFF7FEFB401B4149B0
:1012B000884201D9032073E73F48C0680C210840E9
:1012C0000C28F1D121E0606801280FD107E0FFF779
:1012D000EBFB401B3749884201D9032060E73648C1
:1012E000C0680C2108400428F1D10EE007E0FFF7A8
:1012F000DBFB401B2F49884201D9032050E72E48D1
:10130000C0680C2108400028F1D129480068C007B6
:10131000C00FB04218D9264800684008400030434A
:1013200023490860FFF7C0FB054607E0FFF7BCFB59
:10133000401B2049884201D9032031E71C4800683E
:10134000C007C00FB042F1D1042120680840042832
:1013500008D11948C068072109028843E168084399
:101360001549C860082120680840082809D112489A
:10137000C0680721C90288432169C90008430E4992
:10138000C86000F021F80C49C968F0221140090931
:101390000A4A515CC8400A4908600A480068FFF7D9
:1013A0008FFD0746002F01D03846F9E60020F7E60A
:1013B000002002408813000000100240DC500008AA
:1013C0009C00002094000020F0B585B03548C0682E
:1013D00003900C2103980840002852D0042804D020
:1013E00008280CD00C284BD10BE02E4800681021A7
:1013F0000840002801D02C4D00E02C4D4EE02C4D33
:101400004CE00F21890403980840800C29490F5CA7
:101410000321890503980840800D441C2148C068B9
:1014200001210904084000280BD02148394601F069
:101430001EFC2246002301910090FEF771FE064635
:101440001CE0184800681021084000280BD01648FE
:10145000394601F00CFC2246002301910090FEF772
:101460005FFE06460AE01148394601F000FC2246BC
:10147000002301910090FEF753FE064635460DE02D
:1014800000BF08484068072149030840400B02900C
:101490000298401C01218140CD0300BF00BF2846B7
:1014A00005B0F0BD0010024000093D000024F4002A
:1014B00000127A00F4500008FEB50446002C01D159
:1014C0000120FEBDFB48C7680C210F40C068012108
:1014D0000904084001902078C007C00F002872D08E
:1014E000082F04D00C2F0FD1019888420CD1F1485D
:1014F0000068012149040840400C002863D060685E
:10150000002860D10120DCE700BF012109046068E8
:10151000884205D1E74800680843E649086027E0AB
:1015200005210904606888420ED1E2480068012163
:1015300089040843DF49086008460068012109045E
:101540000843DC49086013E0DA4800680121090417
:101550008843D8490860084600680121090408400A
:10156000009000BFD348006889008843D1490860D3
:1015700000BF6068002813D0FFF796FA054606E022
:10158000FFF792FA401B642801D9032099E7C94864
:101590000068012149040840400C0028F0D012E006
:1015A000FFF782FA054606E0FFF77EFA401B642843
:1015B00001D9032085E7BF4800680121490408409C
:1015C000400C0028F0D102212068084002286CD18C
:1015D000E66820203040002809D0B6480068202165
:1015E0000843B44908602021304688430646042F4A
:1015F00004D00C2F34D10198002831D1AD480068B7
:10160000042108408008002803D0002E01D10120C9
:1016100057E7A84840681F21090288432169090249
:101620000843A449486008460068092188433043BC
:10163000A0490860FFF7C8FE9E49C968F022114022
:1016400009099D4A515CC8409C4908609C48006853
:10165000FFF736FC0290029800283FD0029830E74E
:10166000002E23D0934800680921884330439149D4
:101670000860FFF719FA054606E0FFF715FA401B68
:10168000022801D903201CE78A4800680421084089
:1016900080080028F1D0874840681F21090288434C
:1016A0002169090208438349486017E081480068BE
:1016B000400840007F490860FFF7F6F9054606E05C
:1016C000FFF7F2F9401B022801D90320F9E6794817
:1016D00000680421084080080028F1D1102120680A
:1016E0000840102868D1002F37D17248006849019E
:1016F0000840400A002804D0A069002801D1012038
:10170000DFE66C484068072149038843216A0843A3
:1017100068494860084640680002000A217F0906BF
:10172000084364494860206A400B401C0121814005
:10173000C8036049C968F022114009095E4A515C3A
:10174000C8405E4908605E480068FFF7B9FB029038
:10175000029800284BD00298B3E6A06900282CD04C
:1017600054480068FF210131084352490860FFF7DF
:101770009BF9054606E0FFF797F9401B022801D9BF
:1017800003209EE64B480068012149020840400AB8
:101790000028F0D047484068072149038843216A60
:1017A000084344494860084640680002000A217F17
:1017B000090608433F49486019E03E480068FF2198
:1017C000013188433B490860FFF76EF9054606E0A2
:1017D000FFF76AF9401B022801D9032071E635485A
:1017E0000068012149020840400A0028F0D1082180
:1017F00020680840082839D1606900281BD02D488E
:1018000040300069012108432A4940310861FFF74F
:101810004BF9054606E0FFF747F9401B022801D9BE
:1018200003204EE62348403000690221084040086A
:101830000028F0D01AE01F484030006940084000FE
:101840001C4940310861FFF72FF9054606E0FFF714
:101850002BF9401B022801D9032032E615484030FD
:1018600000690221084040080028F0D104212068C6
:10187000084004287BD1002000900E48806B890628
:101880000840002806D10B48806B0843094988634B
:10189000012000900B480068FF210131084000281A
:1018A00020D108480068084306490860FFF7FCF8A3
:1018B000054610E000100240DC5000089C000020AB
:1018C0009400002000700040FFF7EEF8401B6428F1
:1018D00001D90320F5E587480068FF210131084060
:1018E0000028F1D000BFFF210131A068884205D156
:1018F0008148006908438049086130E0A0680028F9
:101900000DD17D480069FF21013188437A49086182
:101910000846006909158843774908611FE00521D9
:101920000902A06888420DD173480069012189022B
:1019300008437149086108460069891508436E49E2
:1019400008610CE06C480069FF21013188436A4955
:10195000086108460069091588436749086100BFA6
:10196000A068002815D0FFF79FF8054608E031E091
:10197000FFF79AF8401B6149884201D90320A0E58E
:101980005D480069012149020840400A0028EFD063
:1019900013E0FFF789F8054607E0FFF785F8401BDD
:1019A0005649884201D903208BE55348006901213B
:1019B00049020840400A0028EFD10098012808D1C8
:1019C0004D484038806B0121090788434A49403916
:1019D000886300BF606A00284CD00C2F69D0606A11
:1019E000022848D14448403800680121090688434C
:1019F000414940390860FFF757F8054606E0FFF710
:101A000053F8401B022801D903205AE53A484038D0
:101A10000068012149060840400E0028EFD1E16A24
:101A2000A06A0843216B084333494039C968FD2245
:101A300012049143084330494039C86008460068A1
:101A40000121090608432C4940390860FFF72CF8AA
:101A5000054606E0FFF728F8401B022801D90320BD
:101A60002FE5254840380068012149060840400E0E
:101A70000028EFD03CE020484038006801210906EA
:101A800088431D4940390860FFF70EF8054606E017
:101A9000FFF70AF8401B022801D9032011E5164878
:101AA00040380068012149060840400E0028EFD167
:101AB0001EE0606A012800D103E50F484038C06885
:101AC00001900121090401980840A16A88420DD1C2
:101AD0000F21890401980840E16A884206D1032158
:101AE000890501980840216B884201D00120E8E473
:101AF0000020E6E40070004040100240881300001F
:101B000010B50446002C01D1012010BD606A0028E8
:101B100008D1FF2105316068884200D105E000212D
:101B2000E16102E00021216161610021A162512097
:101B3000005D002804D150200155204600F048F8EF
:101B40000221512001552068006840218843216806
:101B50000860FF2105316068084021229202A168D7
:101B6000114008430122D202E168114008430222D9
:101B7000216911400843217DC907C90F084312029A
:101B8000A169114008433822E169114008438022CD
:101B9000216A114008439201A16A1140084321685B
:101BA0000860A069000C042108401022616A1140FD
:101BB0000843216848602068C069D10188432168D2
:101BC000C8610020606501215120015500209CE77B
:101BD00010B586B00446142101A8FEF727FB14496E
:101BE0002068884222D11348406B89140843114968
:101BF000486300BF0846C06A012108430D49C86216
:101C00000846C06AC007C00F009000BF00BFE020B8
:101C100001900220029000200390032004900020F5
:101C2000059001A905200007FEF732FE06B010BDA1
:101C30000030014000100240FFB583B00446164654
:101C40001D4600200290E068002800D000BFFF2160
:101C50000531606888420ED1A06800280BD10421AC
:101C60005120015533460095049A1146204600F054
:101C700091F907B0F0BD00BF5020005D012801D1EF
:101C80000220F6E701215020015500BFFEF70CFFAE
:101C900007465120005D012802D00220029089E011
:101CA0000498002801D0002E02D10120029081E08A
:101CB000042151200155002060650498A063A68787
:101CC000E68700202063A086E086206460644903E4
:101CD000A06888420CD120680068402188432168B0
:101CE0000860206800680121890388432168086032
:101CF0002068006840210840402804D0206800681F
:101D0000084321680860E068002822D11DE02068AF
:101D10008068C007C00F00280AD02068007BA16B34
:101D20000870A06B401CA063E08F401EE0870CE0B1
:101D3000FEF7BAFEC01BA84202D3681C002801D1DE
:101D4000002D02D10320029034E0E08F0028DED184
:101D500021E01DE020688068C007C00F00280AD07D
:101D60002068C068A16B0880A06B801CA063E08F16
:101D7000401EE0870CE0FEF797FEC01BA84202D38E
:101D8000681C002801D1002D02D10320029011E02F
:101D9000E08F0028DED13A462946204600F037FD84
:101DA000002801D020206065606D002801D001204E
:101DB000029000BF01215120015500BF0021502099
:101DC000015500BF029854E7FFB583B0044616469C
:101DD0001D4600200290E068002800D000BF00BF30
:101DE0005020005D012802D1022007B0F0BD012182
:101DF0005020015500BFFEF757FE074601965120BF
:101E0000005D012802D002200290B9E00498002869
:101E100001D0002E02D101200290B1E00321512017
:101E200001550020606504982063A686E6860020A0
:101E3000A063A087E087606420640121C903A068D3
:101E400088420CD1206800684021884321680860DE
:101E50002068006801218903084321680860206820
:101E6000006840210840402804D0206800680843EA
:101E7000216808600121C902E068884232D16068A7
:101E8000002802D00198012809D1206B0088216820
:101E9000C860206B801C2063E08E401EE0861DE041
:101EA000206880680221084002280AD1206B00883F
:101EB0002168C860206B801C2063E08E401EE08695
:101EC0000CE0FEF7F1FDC01BA84202D3681C0028FD
:101ED00001D1002D02D10320029051E0E08E0028B4
:101EE000DED131E06068002802D00198012809D1D4
:101EF000206B007821680873206B401C2063E08E03
:101F0000401EE0861DE0206880680221084002280B
:101F10000AD1206B007821680873206B401C206375
:101F2000E08E401EE0860CE0FEF7BEFDC01BA8421E
:101F300002D3681C002801D1002D02D10320029099
:101F40001EE0E08E0028DED13A462946204600F009
:101F5000AFFC002801D020206065A068002809D1CE
:101F600000BF00902068C0680090206880680090E2
:101F700000BF00BF606D002801D00120029000BFAB
:101F800001215120015500BF00215020015500BF03
:101F900002982AE7FFB587B004461D46109E01202F
:101FA000039000200290E068002800D000BF00BF2E
:101FB0005020005D012802D102200BB0F0BD0121AC
:101FC0005020015500BFFEF76FFD07465120005D10
:101FD0000490606805900695049801280DD0FF21B3
:101FE00005310598884205D1A068002802D10498DF
:101FF000042802D002200290E9E00898002804D0CA
:102000000998002801D0002D02D101200290DEE0C5
:102010005120005D042802D00521512001550020E7
:1020200060650998A063E587A58708982063E58621
:10203000A586002020646064206800684021084074
:10204000402804D020680068084321680860012106
:10205000C902E06888424FD16068002802D0069823
:10206000012809D1206B00882168C860206B801C82
:102070002063E08E401EE08637E020688068022101
:102080000840022811D1E08E00280ED003980128C4
:102090000BD1206B00882168C860206B801C2063F6
:1020A000E08E401EE0860020039020688068C00714
:1020B000C00F00280ED0E08F00280BD02068C06829
:1020C000A16B0880A06B801CA063E08F401EE0879E
:1020D00001200390FEF7E8FCC01BB04205D3701C42
:1020E000002802D00320029071E0E08E0028C4D1C5
:1020F000E08F0028C1D150E06068002802D0069827
:10210000012809D1206B007821680873206B401CDE
:102110002063E08E401EE08639E02068806802215E
:102120000840022811D1E08E00280ED00398012823
:102130000BD1206B007821680873206B401C206352
:10214000E08E401EE0860020039020688068C00773
:10215000C00F00280ED0E08F00280BD02068C06888
:10216000A16B0870A06B401CA063E08F401EE0874D
:1021700001200390FEF798FCC01BB04202D3701CF4
:10218000002801D1002E02D1032002901FE0E08E32
:102190000028C2D1E08F0028BFD13A463146204600
:1021A00000F086FB002804D001200290202060650A
:1021B0000DE0A068002809D100BF01902068C06828
:1021C000019020688068019000BF00BF00BF01211E
:1021D0005120015500BF00215020015500BF029839
:1021E000EBE6000070B504462546681E09498842A2
:1021F00001D901200CE0681E074948610321081F2E
:1022000000F05CFD0020044988610720086100207F
:1022100070BD0000FFFFFF0000E000E000BFFEE730
:1022200001688969022211404908002902D0002171
:102230000268916201688969C907C90F012251408A
:102240005140002904D101688969114302689161F4
:102250007047000070B504460D4616462068806938
:1022600010210840000900283FD018E0681C002811
:1022700015D0FEF719FC801BA84201D8002D0ED105
:10228000606C2021084360644120015500214220F8
:10229000015500BF4020015500BF012070BD2068DE
:1022A00080692021084040090028DFD010202168E3
:1022B000C86120202168C8612046FFF7B1FF20686F
:1022C00040680B49084021684860606C042108435D
:1022D000606420214120015500214220015500BFAA
:1022E0004020015500BF0120D8E70020D6E70000BC
:1022F00000E800FEF0B504686568059C640D0126E1
:10230000B6023440084E26432C46B4438D05AD0D2D
:102310001604FF273F043E4035431D43059E3543C9
:102320002C4305686C60F0BDFF63FF03F8B50446FD
:102330000E4617461D4619E0681C002816D0FEF709
:10234000B3FB0699401AA84201D8002D0ED1606C4B
:10235000202108436064412001550021422001559D
:1023600000BF4020015500BF0120F8BD20688069F2
:102370003040B04201D1012000E00020B842DBD063
:102380000020F2E770B504460D4616461EE03246C0
:1023900029462046FFF75EFF002801D0012070BDCE
:1023A000FEF782FB801BA84201D8002D0ED1606C85
:1023B000202108436064412001550021422001553D
:1023C00000BF4020015500BF0120E8E72068806978
:1023D0002021084040090028D9D00020DFE770B54F
:1023E00004460D46164621E0324629462046FFF7B0
:1023F00031FF002801D0012070BD681C002815D0D5
:10240000FEF752FB801BA84201D8002D0ED1606C54
:1024100020210843606441200155002142200155DC
:1024200000BF4020015500BF0120E5E7206880691A
:102430000221084040080028D6D00020DCE7000038
:1024400000B587B0142102A8FDF7F0FE00BF2B48AD
:10245000C06A042108432949C8620846C06A0421A9
:102460000840019000BF00BF00BF2448C06A01219E
:1024700008432249C8620846C06AC007C00F0190DD
:1024800000BF00BF00BF0846C06A022108431B49C5
:10249000C8620846C06A02210840019000BF00BF20
:1024A0000022132105200007FEF7F7FA0022202161
:1024B0001348FEF7F2FA01208003029000200390F7
:1024C000049002A90F48FEF7E3F9132002900120BF
:1024D000039000200490059002A905200007FEF754
:1024E000D7F920200290012003900020049005904D
:1024F00002A90348FEF7CCF907B000BD0010024066
:10250000000400500008005010B51348134908603B
:10251000134848600021114881600121C1600021F9
:10252000016141618161C1610162FEF733FB0028F5
:1025300001D0FEF793F900210848FEF7BBFA002806
:1025400001D0FEF78BF900210448FEF7EAFA0028D3
:1025500001D0FEF783F910BD00780040C0020020D2
:102560008266500010B50F480F490860FF20053003
:10257000486000210C488160C16001614161012116
:10258000490281610821C1610021016241628162C9
:102590000721C162FFF7B4FA002801D0FEF75EF907
:1025A00010BD0000003001400C03002000BFFEE71A
:1025B00070B5002419E02046B030C1B2002000F010
:1025C0000BF90021084600F007F91021002000F067
:1025D00003F9002505E00021012000F0FDF8681C4A
:1025E000C5B2802DF7DB601CC4B2042CE3DB70BDE8
:1025F00010B5AE21002000F0EFF8D521002000F04A
:10260000EBF88021002000F0E7F8A821002000F07E
:10261000E3F81F21002000F0DFF8D321002000F0B4
:10262000DBF80021084600F0D7F84021002000F038
:10263000D3F8B021002000F0CFF88D21002000F069
:10264000CBF81421002000F0C7F8A121002000F0F1
:10265000C3F8C821002000F0BFF8DA21002000F004
:10266000BBF80021084600F0B7F88121002000F0F7
:10267000B3F8FF21002000F0AFF8D921002000F0CE
:10268000ABF81F21002000F0A7F8DB21002000F0AC
:10269000A3F84021002000F09FF8A421002000F0C2
:1026A0009BF8FFF785FFAF21002000F095F810BDE3
:1026B00010B50446012C05D1002220210448FEF764
:1026C000ECF904E0012220210148FEF7E6F910BDF3
:1026D0000004005070B504460D462846B030C1B223
:1026E000002000F079F8F020204000110146103160
:1026F000002000F071F82107090F002000F06CF8AD
:1027000070BD0000FFB581B007460D4600260024CD
:1027100003982038C6B27F2F02DD0027A81CC5B25F
:102720000498102824D129463846FFF7D3FF002407
:1027300008E030010019184A115C012000F04CF843
:10274000601CC4B2082CF4DB681CC1B23846FFF729
:10275000C1FF002409E03001001908300E4A115C65
:10276000012000F039F8601CC4B2082CF3DB11E042
:1027700029463846FFF7AEFF002409E006207043E3
:10278000064A8018015D012000F026F8601CC4B2E2
:10279000062CF3DB05B0F0BDEC4A0008C448000885
:1027A000FFB581B004460F46154600260FE0AA5D2E
:1027B00039462046049BFFF7A5FF20460830C4B2E7
:1027C000782C02DD0024B81CC7B2701CC6B2A85D0C
:1027D0000028ECD105B0F0BD7CB505460C46002DB7
:1027E00002D16946087102E04020694608716846D6
:1027F00044710448022301AA782100900248FEF7A0
:1028000033FA7CBDFFFF0000C00200207047F8B51E
:1028100004460E461546FF210531606888420ED1F8
:102820000121C903A068884203D04911A0688842E9
:1028300005D1206800684021884321680860FF2195
:1028400005316068884222D101218902A06888424E
:102850000ED03346002280212046009500F064F817
:10286000002823D0606D2021084360650320F8BD57
:102870003346002201212046009500F055F800283B
:1028800014D0606D2021084360650320EFE73346D4
:10289000002201212046009500F046F8002805D0CE
:1028A000606D2021084360650320E0E70020DEE73B
:1028B000FEB504460D461646182119480068FDF776
:1028C00019FC07461749FDF715FC7D21C90048434F
:1028D0000190FF210531606888420ED12B4600220D
:1028E00080212046009600F01FF8002815D0606D6A
:1028F0002021084360650320FEBD00BF0198002829
:1029000000D109E00198401E019020688068802174
:102910000840C0090028F1D100BF0020ECE700000A
:102920009C00002040420F00FFB583B004460D46D6
:102930001E46FEF7B9F80C99401A371AFEF7B4F89C
:1029400001902F4800684001000D7843029049E053
:10295000701C002846D0FEF7A7F80199401AB8422B
:1029600001D2002F37D120684068E02188432168D8
:102970004860FF210531606888420ED10121C903FA
:10298000A068884203D04911A068884205D1206818
:102990000068402188432168086001214903A06A3A
:1029A00088420DD100BF2068006888432168086014
:1029B000206800680121490308432168086000BFBE
:1029C00001215120015500BF00215020015500BFB9
:1029D000032007B0F0BD0298002800D1002702981C
:1029E000401E0290206880682840A84201D1012141
:1029F00000E0002105988142AAD10020E9E700000B
:102A00009C0000207047000010B5FEF737FA1A4806
:102A10000088401C1849088018480088401C174945
:102A2000088017480088401C154908801248008813
:102A3000642805DB00201049088001201149087036
:102A40000E48008814280CDB00200C490880012166
:102A500089030D48FEF718F80C49087001200C494D
:102A6000087007480088C82805DB00200449088052
:102A700001200849087010BD880000208A0000204D
:102A80008C000020850000200008005087000020F6
:102A9000840000208600002000B59BB034210EA8E1
:102AA000FDF7C4FB142109A8FDF7C0FB202101A8F4
:102AB000FDF7BCFB1D4800680321C90288430121C2
:102AC000C90240181949086002200E900120119097
:102AD00010201290022017900021189119914105A1
:102AE0001A910EA8FEF7E8FC002801D0FDF7B6FE0B
:102AF0000F20099003200A9000200B900C900D905D
:102B0000012109A8FEF746FB002801D0FDF7A6FE2B
:102B1000FF20013001900020079001A8FEF714FA71
:102B2000002801D0FDF79AFE1BB000BD00700040E8
:102B30007047000070B50646002400252A4A2B493C
:102B4000304601F00DFD00284CD105E02748005D1E
:102B500027490855601CC4B2234800888442F5DB2D
:102B6000214801782248FDF735FE0546012D04D0A5
:102B7000022D13D0032D33D121E00122114605206F
:102B80000007FDF78AFF0022022105200007FDF75C
:102B900084FF0221304601F009FD22E000220121DC
:102BA00005200007FDF779FF01220221052000071B
:102BB000FDF773FF0221304601F0F8FC11E000221E
:102BC000012105200007FDF768FF002202210520F2
:102BD0000007FDF762FF0221304601F0E7FC00E04C
:102BE00000BF00BF284670BD62000020C00000206A
:102BF000BF01002010B5044607220449204601F019
:102C0000C3FC0221204601F0D1FC10BD640000206D
:102C10002021020C01D010211046020A01D01046DA
:102C20000839020901D01046091F820801D0104658
:102C3000891E420801D0881E7047081A7047F8B5EF
:102C400082B28BB204140D1410465843002126465C
:102C50005E43371436048019794116466E433714A3
:102C600036048019794126466E438919F8BDF8B5B6
:102C700082B28BB2040C0D0C10465843002126463C
:102C80005E43370C36048019794116466E43370C83
:102C900036048019794126466E438919F8BD30B44F
:102CA0007446641E2578641CAB4204D3635D5B00EC
:102CB000E31830BC18471D46F8E7000010B500289F
:102CC00019DB1A4A03231B02D21883089B00D2582F
:102CD0008307DC0EFF23A3409A438B071B0E840758
:102CE000E40EA3401A43114B032424021B19840849
:102CF000A4001A5118E00E4A03071B0F083B9B085B
:102D00009B00D2588307DC0EFF23A3409A438B0716
:102D10001B0E8407E40EA3401A43054B0407240F3F
:102D2000083CA408A4001A5110BD000000E100E016
:102D30001CED00E070B504461221204601F022F996
:102D40000546E807C00F002806D0012212212046C0
:102D500001F02DFB002070BD0320FCE7704770B52B
:102D600004460D46206901682846884770BD70B545
:102D700004460D46206941682846884770BD704763
:102D800070B505461A21284601F0FCF804461921C1
:102D90006956002915DAE8694068006811498842D7
:102DA00007D920469D38211141181922AA568E189C
:102DB00016E02046A438211141181922AA568E186F
:102DC0000EE0E869406800680649884204D9204658
:102DD0009D382111461803E02046A43821114618D9
:102DE000304670BD40DD4A1F70B506461921304699
:102DF00001F0C8F8054680202840002805D0E843A7
:102E0000401C0006840E644201E02806840E204621
:102E100070BD10B50446A1684868804710BD000029
:102E2000F1B588B00921089801F0ACF806900621A8
:102E3000089801F0A7F807040721089801F0A2F804
:102E4000000207430821089801F09CF80743384620
:102E50000197FDF793FB05460022364BFDF7A6FAD6
:102E600003910290FDF7B2FB05900022092108981A
:102E700001F09DFA3B21089801F084F8BF21084039
:102E8000054640352A463B21089801F090FA00BFDC
:102E90003B21089801F076F8202108402028F7D03F
:102EA000D9242404200C694608742004010E6846C5
:102EB00041748474032304AA0621089801F04CFA93
:102EC0003B21089801F05EF8BF21084005464035D7
:102ED0002A463B21089801F06AFA00BF3B21089876
:102EE00001F050F8202108402028F7D00921069A47
:102EF000089801F05CFA0598FDF740FB00220D4BA5
:102F000003910290FDF7BAFA0546FDF75FFB044610
:102F10002002010E684601742004010E68464174C7
:102F20008474032304AA0621089801F015FA09B055
:102F3000F0BD000080844E4070477047704702E04B
:102F400008C8121F08C1002AFAD170477047002034
:102F500001E001C1121F002AFBD1704770B5044681
:102F60000D46A06801682846884770BD70B50546C3
:102F70000C46092C10D1E869406800681049884265
:102F80000AD902223621284601F011FA64223A2198
:102F9000284601F00CFA11E0092C0AD10222362150
:102FA000284601F004FA7F223A21284601F0FFF971
:102FB00004E003223621284601F0F9F970BD000033
:102FC00040DD4A1FF8B504460D4600200090E06938
:102FD0004068C07A012815D11C21204600F0D2FF9C
:102FE0008006800E0090E0694068016A0098FDF755
:102FF00081F88800E1694968C9690F583946204657
:1030000000F0F0FC002020750121204600F066FC55
:10301000FA221121204601F0CAF940221146204629
:1030200001F0C5F940224121204601F0C0F90A21F2
:103030006175207D0121084320750721204600F09D
:103040004DFC2EE01221204600F09CFF0646042095
:103050003040002825D004221221204601F0A7F993
:10306000207D042108432075E069006880690028FC
:1030700004D0E06900688169012088472046FFF795
:1030800059FE002806D101202870207D0821084320
:10309000207505E000202870207D0221084320755E
:1030A00000E0CFE700BF0121204600F017FC00211F
:1030B00061750020F8BD70B505460C4631212846E3
:1030C00000F060FFF82108402043064632463121D7
:1030D000284601F06CF970BD70B505460C462246D5
:1030E0003721284601F063F970BDF8B505460E4654
:1030F000144600273300FFF7D2FD0934060C161BD7
:1031000020252A2F340021462846FFF75BFF07467B
:1031100028E02078002801D0012000E00020E969A3
:103120004968C8721EE02178284600F0E8FC19E0E2
:103130002178284600F0F9FC14E02178284600F0B8
:103140008BFB0FE02178284600F012FC0AE0207883
:10315000E9694968887205E02178284600F0B5FFE2
:1031600000E000BF00BF3846F8BD417D022902D013
:103170000A2901D101E000BF00BF00BF704710B5B0
:103180000446607D022820D180221221204601F0D1
:103190000EF9E0694068807A002802D10221617549
:1031A00005E00021204600F099FB00216175E069EF
:1031B0000068002808D0E0690068C068002803D0D3
:1031C000E1690968C868804700E000BF00BF10BD22
:1031D00070B50446607D022802D0062830D100E098
:1031E00000BFE0694068C07A012823D11C21204635
:1031F00000F0C8FE8506AD0EE0694068016A284609
:10320000FCF778FF8800E1694968C9690E583146C2
:10321000204600F0E7FBE069006800280AD0E0697A
:1032200000684069002805D0A806800EE26912688F
:103230005169884702221221204601F0B8F800E0C7
:1032400000BF00BF70BD38B505460C4602236A4674
:103250002021284600F06CFE694608780002497873
:1032600008432080002038BD10B504460021617558
:1032700020220C21204601F09AF8E069406801689C
:10328000204600F0AFFBE06940688179204600F0FD
:103290004CFCE0694068C179204600F0DDFAE06945
:1032A0004068017A204600F063FBE069406841799C
:1032B000204600F024FCE0694068417A204600F096
:1032C000E2FA1249204600F060FCE0694068417D66
:1032D000204600F064FBE0694068C18A204600F0A7
:1032E00068FB3F220B21204601F061F88021204637
:1032F00000F02CFBE069406804214156204600F0B4
:1033000097FB0121204600F0E9FA10BDFF03000001
:1033100070B505460C461B21284600F033FE0646D4
:10332000E869406800680649884203D930469D38FC
:10333000208002E03046A4382080002070BD0000CC
:1033400040DD4A1FF0B585B004460E461546002004
:1033500003900290E0694068007A00280DD01C219B
:10336000204600F00FFE40210840402805D00020F4
:1033700028700A20C04305B0F0BD1221204600F09D
:1033800001FE0390202103980840202820D120220C
:103390001221204601F00BF8E0690068002808D0EF
:1033A000E06900680069002803D0E16909680869DC
:1033B0008047E0694068807A002802D10221617567
:1033C00001E000216175002028700A20C043D2E787
:1033D0002046FFF709FD60762046FFF7D1FC6083A9
:1033E0001021204600F0CEFD0290E0694068407A4E
:1033F000012824D10D212046029A00F0D8FFE0696F
:103400004068807E01280ED1E0694068407D801CC4
:10341000C2B23146204600F0AAFDE0694068407D16
:10342000801C28701AE0E0694068427D31462046E1
:1034300000F09DFDE0694068407D28700EE013219A
:10344000204600F09FFD28700D212046029A00F0D2
:10345000AEFF2A783146204600F089FDE0694068D9
:10346000807E01281ED12878811E304600F0AAFFF8
:103470000190FF2109020198084001122878801E5E
:10348000305C814206D10198C1B22878401E305C80
:10349000814204D0002028700A20C0436BE72878BE
:1034A000801E2870E0690068002810D0E06900687C
:1034B000806800280BD01923E3561A22A25E2878D0
:1034C0000090E0690068876830460099B847E06975
:1034D0004068807A002802D10221617501E0002154
:1034E0006175002047E70000F0B587B00446012170
:1034F000204600F0F3F9E069406841792046FFF783
:1035000035FDE0694068017E204600F061FDE0691C
:1035100040684079092873DA3121204600F032FDF5
:1035200006467206520E3121204600F040FF00226E
:103530003021204600F03BFFE069406840790300FD
:10354000FFF7ADFB0906102A445F7993999FA50008
:1035500048222F21204600F02AFFB949204600F0DA
:1035600041FA94E044222F21204600F020FFE16937
:1035700049680868FDF702F80022B24B01910090FB
:10358000FCF760FE03910290FDF720F801460490DD
:10359000204600F027FA7AE044222F21204600F04E
:1035A00006FFE16949680868FCF7E8FF0022A64BBE
:1035B00001910090FCF746FE03910290FDF706F89A
:1035C00001460490204600F00DFA60E044222F21CD
:1035D000204600F0ECFEE16949680868FCF7CEFF80
:1035E00000229A4B01910090FCF72CFE039102906F
:1035F000FCF7ECFF01460490204600F0F3F946E0AA
:1036000046E044222F21204600F0D1FEE1694968BE
:103610000868FCF7B3FF00228D4B01910090FCF786
:1036200011FE03910290FCF7D1FF01460490204661
:1036300000F0D8F92BE044222F21204600F0B7FEFD
:10364000E16949680868FCF799FF0022814B019104
:103650000090FCF7F7FD03910290FCF7B7FF0146DD
:103660000490204600F0BEF911E040222F212046B0
:1036700000F09DFE0BE040222F21204600F097FE37
:1036800005E040222F21204600F091FE00BF0BE014
:103690003121204600F076FC064680203043024669
:1036A0003121204600F083FEE06940688579E069B9
:1036B00040684779062F05D10A2D12D00B2D10D066
:1036C0000C2D0ED0072F03D10B2D0AD00C2D08D0B6
:1036D000082F01D10C2D04D0E0694068C07A002881
:1036E00004D00121204600F0E4F803E00021204648
:1036F00000F0DFF8E0694068C07A01282AD144214F
:10370000204600F03FFC4006400E80300246442137
:103710000490204600F04BFEE0694068027B2421C3
:10372000204600F044FE1C21204600F02BFC8006C1
:10373000800E0590E0694068016A0598FCF7DAFCA4
:103740008800E1694968C969085801460490204623
:1037500000F048F9E0694068C07A012813D11D22C1
:103760001121204600F023FE4021204600F00AFCF3
:103770008006800EF3210840024640210490204636
:1037800000F015FE13E00F221121204600F00FFE7D
:103790004021204600F0F6FB8006800ECC21084038
:1037A000401C024640210490204600F000FE4121CA
:1037B000204600F0E7FB8006800E80300246412163
:1037C0000490204600F0F3FDE0694068407A01284B
:1037D00013D1E0694068807E012808D1E069406823
:1037E000407D801CC1B2204600F0D9F805E0E069B8
:1037F0004068417D204600F0D2F8FF221221204689
:1038000000F0D5FD02216175E0694068807A0128E9
:1038100004D10621204600F061F80DE000220F21BE
:10382000204600F0C4FD00220D21204600F0BFFD1F
:103830000521204600F052F8002007B0F0BD00003E
:10384000821E00000082BE400082CE408057D440DD
:103850008084DE40C058E44070B505460C461D210A
:10386000284600F08FFB06463046F12108406100F3
:103870000843C6B232461D21284600F098FDE8698B
:103880004068C47170BD70B505460C461D212846C0
:1038900000F078FB06463046FE21084020430646ED
:1038A00032461D21284600F082FDE86940684472D6
:1038B00070BD70B506460C462621304600F062FB0E
:1038C00005462846F7210840E1000843C5B22A46CC
:1038D0002621304600F06BFD70BD000070B5064635
:1038E0000C460121304600F04DFB0546F8212846E4
:1038F00088430949087008460078844209D0284660
:10390000F8210840204305462A460121304600F0B0
:103910004EFD002070BD000060000020F8B5054697
:103920000C464D21284600F02DFB0646092128466D
:1039300000F028FB0746012C01D1872600E08426F1
:1039400032464D21284600F032FDF8BD70B50646DE
:103950000C460921304600F015FB05466806400E6E
:10396000204305462A460921304600F020FD70BD5F
:1039700070B505460C461E21284600F003FB06469E
:103980003046FB210840A1000843C6B232461E2142
:10399000284600F00CFDE8694068047270BD70B5FF
:1039A00005460C4622462221284600F000FD002054
:1039B00070BD38B505460C4602236A4620212846CC
:1039C00000F0B6FA2004010E68460170447002232C
:1039D0006A462021284600F0BFFCE8694068C4829E
:1039E000002038BDFEB507460C46F8694068046003
:1039F0002046FCF7C3FD054600220C4BFCF73EFDBC
:103A000001910090FCF7E2FD04462002010E684699
:103A100001722004010E684641728472032302AAD7
:103A20000621384600F098FC0020FEBD80844E4000
:103A3000F8B507460C46112C04DD01213846FFF786
:103A40006DFF03E000213846FFF768FF0921384683
:103A500000F098FA05464D21384600F093FA0646E4
:103A60008020284080282BD187203040872813D100
:103A7000052C00DA0524142C00DD142428468F219F
:103A80000840054670352846F0210840611F0907A7
:103A9000090F0843054628E0022C00DA0224112C05
:103AA00000DD112428468F21084005467035284640
:103AB000F0210840A11E0907090F0843054614E03C
:103AC0000020C043844200DA04460E2C00DD0E24A0
:103AD00028468F210840054670352846F0210840C9
:103AE000611C0907090F084305462A460921384683
:103AF00000F05DFCF86940680471E0B2F8BD70B593
:103B000005460C461D21284600F03CFA06463007C3
:103B1000000F21010843C6B232461D21284600F09D
:103B200046FCE8694068447170BD70B505460C46B6
:103B30000C2C01DD0C2402E0062C00DA0624062CF5
:103B400008D105212846FFF7B6FA0C212846FFF7D1
:103B5000C3FA07E003212846FFF7ADFA0A212846F9
:103B6000FFF7BAFA1E21284600F00CFA0646300785
:103B7000000F21010843C6B232461E21284600F03C
:103B800016FCE8694068847170BDF8B505460C46BE
:103B900002236A461E21284600F0CAF91E21284643
:103BA00000F0F0F900901F21284600F0EBF90646DE
:103BB00068460078FC2108402112FC229143014311
:103BC0000091E6B2684602781E21284600F0EFFB1D
:103BD00032461F21284600F0EAFBF8BDF0B589B057
:103BE00004460F46154600200190002F02D1C01E4A
:103BF00009B0F0BDE0694068807E012803D1FD2D49
:103C000006DD401FF4E7FF2D02DD0320C043EFE790
:103C1000E0694068807E012813D12946384600F0CB
:103C2000D1FB0390FF2109020398084002122846A5
:103C3000691C8DB23A540398C2B22846691C8DB2F1
:103C40003A54E8B2059001212046FFF747FEE069AB
:103C50004068417E204600F053FBE0694068C07A2E
:103C600001281DD1F5200890E0694068007B07908D
:103C70001C21204600F086F98006800E0690E0693F
:103C80004068016A0698FCF735FA8800E1694968DE
:103C9000C9690858014600902046FFF7A3FE03E0DB
:103CA000F72008900020079024212046079A00F072
:103CB0007EFB11212046089A00F079FBE0694068FC
:103CC0008679E0694068407904900498062805D117
:103CD0000A2E14D00B2E12D00C2E10D004980728C8
:103CE00003D10B2E0BD00C2E09D00498082801D13B
:103CF0000C2E04D0E0694068C07A002804D001216D
:103D00002046FFF7D6FD03E000212046FFF7D1FD56
:103D10000121204600F036F9F8218843002807D118
:103D200001212046FFF7DAFD64212046FFF71FF846
:103D300022212046059A00F03AFB00220E2120465F
:103D400000F035FB00220D21204600F030FB394603
:103D50002046059A00F020FB77224021204600F003
:103D600026FB30224121204600F021FBFF221221B8
:103D7000204600F01CFB2046059900F0AFF90290A8
:103D80000621617503212046FFF7A8FD20E00121EF
:103D90002046FEF7E4FFE0694068007D002817D068
:103DA0000198401C019002980A30019981420FD974
:103DB000E06900684068002803D0E1690968486844
:103DC000804701212046FFF789FD0820C0430FE707
:103DD0001221204600F0D6F8082108400028D6D04D
:103DE000E06900680068002803D0E1690968086894
:103DF000804708221221204600F0D9FA01212046EE
:103E0000FFF76CFD0020F3E6F8B504460D460027E9
:103E1000002D06D0012D0CD0022D12D0032D2BD158
:103E200016E000212046FFF759FD07460021617585
:103E300023E001212046FFF751FD0746002161756F
:103E40001BE02046FFF750FB07460221617514E096
:103E50001E21204600F096F8064608203043024610
:103E60001E21204600F0A3FA03212046FFF736FD6D
:103E700007460621617500E000BF00BF3846F8BD67
:103E8000FEB506460F46144600200090002F01D0D4
:103E9000002C02D10220C043FEBD00202080122150
:103EA000304600F06FF805464020284000280FD02B
:103EB00040221221304600F07AFA6A4639463046EE
:103EC000FFF740FA01906846007820800198E3E708
:103ED00080202840002804D0002171750920C043AB
:103EE000DAE70620C043D7E7F7B588B00C46154699
:103EF00020220E496846FCF780F9082C03D90320DC
:103F0000C0430BB0F0BDA1006A465058FCF744FB1B
:103F100047B239460898FFF78BFD0646002D03D0BF
:103F20003046FCF723FB28600020EAE7A44800089D
:103F3000FFB581B004460E461746E0684168002090
:103F400088477106490E2046FFF708F8002505E06E
:103F50002046FEF75EFF7855681CC5B2049885427E
:103F6000F6DBE06841680120884705B0F0BD70B518
:103F700006460C4615462B46224600213046FFF7E2
:103F8000D7FF70BD38B504460D4601236A46294661
:103F90002046FFF7CDFF6846007838BD10B50446CF
:103FA000E0680068002801D1401E10BDE06801688B
:103FB0000020884702212046FEF7D1FEE068016814
:103FC000012088470A212046FEF7C9FE0020ECE7C1
:103FD00070B505460C46012C12D133212846FFF757
:103FE000D1FFBE21084006464136324633212846DD
:103FF00000F0DDF919223B21284600F0D8F910E045
:1040000033212846FFF7BEFFBE210840461C32463A
:104010003321284600F0CBF91D223B21284600F031
:10402000C6F9E8694068047670BD70B505460E466D
:1040300000212846FFF752FC01212846FFF7A2FF86
:1040400004466006400E044680342246012128467C
:1040500000F0ADF970BD00B50246507D0300FEF7DB
:104060001EFE0B231B1C0F1008070B0C201F260025
:1040700000BF032008701DE000BF0020087019E099
:1040800000BFD0694068807A002802D10220087001
:1040900001E0002008700DE000BF0220087009E078
:1040A00000BF0420087005E00020087002E0002036
:1040B000087000BF00BF002000BD03460520C043BC
:1040C000704703460520C043704770B505460C464F
:1040D00022463921284600F06AF970BDF3B5A9B02F
:1040E0000646002005902A980F90F0694068807974
:1040F0000E90F0694068C0790D90F0694068C08A00
:104100000C9026213046FFF73DFF08210840C008EB
:104110000490F06940684079062806D0072806D048
:10412000082806D0092808D105E06D4F08E06D4F3A
:1041300006E06D4F04E06D4F02E000202BB0F0BDB3
:1041400000BF01200E9988406949FEF778FD3A4684
:10415000002303910290FBF7E3FF0B910A9064495F
:104160000C98FEF784FD634B0022C0180B465341A8
:104170000A9A0B9910AC0EC413901946109BFBF7CA
:10418000FFFF5B4A002303910290FBF7C9FF0991EF
:1041900008900498002801DD022100E000210E981B
:1041A000401A800003900F98C1000E988000081AF2
:1041B0001C30F1694968097A002901D0012100E029
:1041C000002109014018F1694968497A002901D0A4
:1041D000142100E00021401A4549FEF748FD0191F5
:1041E00000900023039AFBF79BFF04460D462046F0
:1041F0002946002358405940084345D03C4A2046B0
:104200002946FBF78DFF3C490020511A83411BD200
:10421000374A002320462946FBF782FF0D9A121DDC
:104220000023189319921A911B90FBF7A9FF304BAA
:10423000002215931492169117901A46149BFBF7BF
:104240009FFF04460D4621E0294A002320462946C7
:10425000FBF766FF0022431C51410D98001D21AD64
:104260000BC520921846209B219AFBF789FF204B13
:1042700000221D931C921E911F901A461C9BFBF757
:104280007FFF04460D4601E0002425462A461B49CF
:104290000020631842410B990A9825AC0DC4249163
:1042A00018461146249B259AFBF76AFF104A002303
:1042B00003910290FBF734FF0791069006A90EC9FF
:1042C0000998591850417D22D20000230291039091
:1042D00008460399FBF724FF401C059005982DE73D
:1042E00024F4000048E8010090D0030020A107005A
:1042F00040420F0090D940001027000000127A00C1
:1043000070B505460C46012C11D133212846FFF724
:1043100039FEBE210840064632463321284600F0C9
:1043200046F819223B21284600F041F810E03321DD
:104330002846FFF727FEBE210840461C324633219F
:10434000284600F034F81D223B21284600F02FF8C3
:10435000E8694068447670BDFFB581B004460E46FA
:104360001746E068416800208847802030430146B6
:104370002046FEF7F3FD002505E0795D2046FEF7B7
:10438000EDFD681CC5B204988542F6DBE068416823
:104390000120884705B0F0BD70B506460C461546AD
:1043A0002B46224600213046FFF7D6FF70BD37B5B9
:1043B00004460D46012302AA29462046FFF7CCFFFA
:1043C0003EBD000070B502460B460E4D0020002198
:1043D00015E0565C3602704000240DE00126F6031D
:1043E0000640002E05D04604300C06466E4030468E
:1043F00001E04604300C641C082CEFDB491C994298
:10440000E7D370BD211000000024FCF743FDFEF748
:1044100043FBFEF715F8FEF777F8FEF7A3F8012047
:10442000FEF746F9C820FCF71DFAFEF7E1F8FEF7A3
:10443000BFF8102339A200210846FEF7B1F9102376
:1044400039A202210020FEF7ABF90122D10339483D
:10445000FCF723FB0022012105200007FCF71DFBD0
:104460000022022105200007FCF717FB00F0E4F80A
:104470003149086008460068002804D002212E480F
:10448000006800F093F848E02C480078002806D136
:1044900001202A49087028480068FEF7ABFB28482D
:1044A000007801282DD1002025490870012C0BD15E
:1044B000102324A200210846FEF772F910231AA245
:1044C00002210020FEF76CF9022C0BD1102313A25D
:1044D00000210846FEF764F910231DA202210020E6
:1044E000FEF75EF9032C0BD110230CA20021084625
:1044F000FEF756F910230CA202210020FEF750F916
:10450000002416480078012807D1002013490870BC
:1045100009480068FEF70EFB0446B5E74B312D4C09
:1045200045443A4F464600004B322D4C45443A4FE5
:104530004646000000080050800000208700002050
:10454000850000204B312D4C45443A4F4E20000051
:104550004B322D4C45443A4F4E200000860000203F
:1045600070B504460D461646002C03D0002D01D030
:10457000002E02D10220C04370BD2168606832461F
:10458000CB6A29469847F7E770B504460D461646AC
:10459000002C01D0002D02D10220C04370BD216843
:1045A000606832468B6A29469847F7E770B504463B
:1045B0000D46002C01D1C01E70BD21686068CA691B
:1045C00029469047F8E70000FFB581B004460D4644
:1045D00016460A9F002C03D0002D01D0002F02D1D7
:1045E000002005B0F0BDA560E66004982061E76199
:1045F000104820606460002020750021617520460D
:1046000000F052F8002801D00020EAE72046FFF72A
:10461000C5FC2046FEF704FC00212046FFF75EF9AA
:1046200001212046FFF701FD2046FEF71DFE204632
:10463000D7E700005C47000808B50E480E494860FF
:104640000E4808600E480F4908600F4848600F4840
:104650000F4908600F4848600F481049086010482B
:10466000486008460A4B074A034900900D48FFF787
:10467000ABFF08BDD146000800000020ED46000851
:1046800013470008080000203947000805470008C4
:104690001000002011470008200000201800002012
:1046A0003C000020A000002070B5054635242246BD
:1046B00007212846FFF77BFE07212846FFF762FC0B
:1046C000A04202D00020C04370BD0020FCE70000E3
:1046D00008B5044B012269460348FDF7ADFA684668
:1046E000007808BDFFFF00000C03002001B5034B5C
:1046F000012269460248FDF767FB08BDFFFF000085
:104700000C03002010B504462046FCF7ABF810BDA2
:10471000704710B50446002C06D00122D1020520B6
:104720000007FCF7BAF906E000220121C9020520C2
:104730000007FCF7B2F910BD10B50446002C06D0F6
:104740000122102105200007FCF7A7F905E000224F
:10475000102105200007FCF7A0F910BD9D3F0008BF
:10476000C3400008BB400008B339000847320008C6
:10477000E93E0008E5390008093E000857400008F6
:1047800011330008DD3B0008813E0008EB300008D3
:104790006B3100087F310008D131000800000000B3
:1047A0000000000000B1081940F3171980352719DF
:1047B000C077361900BA451940FC5419803E641977
:1047C000C080731900C38219400592198047A1194E
:1047D000C089B01900CCBF19400ECF198050DE1926
:1047E000C092ED1900D5FC1940170C1A80591B1AFC
:1047F000C09B2A1A00DE391A4020491A8062581AD2
:10480000C0A4671A00E7761A4029861A806B951AA9
:10481000C0ADA41A00F0B31A4032C31A8074D21A81
:10482000C0B6E11A00F9F01A403B001B807D0F1B57
:10483000C0BF1E1B00022E1B40443D1B80864C1B2C
:10484000C0C85B1B000B6B1B404D7A1B808F891B04
:10485000C0D1981B0014A81B4056B71B8098C61BDC
:10486000C0DAD51B001DE51B405FF41B80A1031CB3
:10487000C0E3121C0026221C4068311C80AA401C88
:10488000C0EC4F1C002F5F1C40716E1C80B37D1C60
:10489000C0F58C1C00389C1C407AAB1C80BCBA1C38
:1048A000C0FEC91C00000040000080400000004124
:1048B0000000204100006041000080410000904164
:1048C0000000A0410000000000000000002F0000D8
:1048D00000000700070000147F147F1400242A7FC3
:1048E0002A12006264081323003649552250000042
:1048F0000503000000001C224100000041221C00B2
:104900000014083E08140008083E0808000000A033
:10491000600000080808080800006060000000202F
:1049200010080402003E5149453E0000427F40000D
:10493000004261514946002141454B310018141293
:104940007F10002745454539003C4A494930000160
:104950007109050300364949493600064949291EAF
:104960000000363600000000563600000008142211
:104970004100001414141414000041221408000211
:104980000151090600324959513E007C1211127C36
:10499000007F49494936003E41414122007F414163
:1049A000221C007F49494941007F09090901003E55
:1049B0004149497A007F0808087F0000417F410093
:1049C000002040413F01007F08142241007F404009
:1049D0004040007F020C027F007F0408107F003EF1
:1049E0004141413E007F09090906003E4151215ED7
:1049F000007F091929460046494949310001017FD4
:104A00000101003F4040403F001F2040201F003F69
:104A10004038403F0063140814630007087008071B
:104A200000615149454300007F41410000552A552E
:104A30002A55000041417F000004020102040040A9
:104A400040404040000001020400002054545478CB
:104A5000007F4844443800384444442000384444EB
:104A6000487F00385454541800087E090102001889
:104A7000A4A4A47C007F080404780000447D4000C6
:104A8000004080847D00007F102844000000417FAA
:104A90004000007C04180478007C08040478003886
:104AA0004444443800FC242424180018242418FC0E
:104AB000007C0804040800485454542000043F4477
:104AC0004020003C4040207C001C2040201C003C3A
:104AD0004030403C004428102844001CA0A0A07C8A
:104AE000004464544C4414141414141400000000C2
:104AF000000000000000000000000000000000F8BE
:104B000000000000000000333000000000100C0620
:104B1000100C0600000000000000000040C07840BB
:104B2000C0784000043F04043F040400007088FC87
:104B300008300000001820FF211E0000F008F000DF
:104B4000E018000000211C031E211E0000F0088850
:104B5000700000001E2123241927211010160E00BA
:104B6000000000000000000000000000000000E065
:104B7000180402000000000718204000000204187A
:104B8000E00000000040201807000000404080F0D6
:104B9000804040000202010F01020200000000F00C
:104BA000000000000101011F0101010000000000E0
:104BB0000000000080B07000000000000000000055
:104BC00000000000000101010101010100000000DE
:104BD0000000000000303000000000000000000075
:104BE00080601804006018060100000000E0100852
:104BF0000810E000000F102020100F00001010F827
:104C0000000000000020203F202000000070080865
:104C100008887000003028242221300000300888E5
:104C2000884830000018202020110E000000C0200D
:104C300010F8000000070424243F240000F808882E
:104C4000880808000019212020110E0000E01088BB
:104C500088180000000F112020110E0000380808ED
:104C6000C83808000000003F0000000000708808FD
:104C700008887000001C222121221C0000E010087E
:104C80000810E0000000312222110F00000000C0D7
:104C9000C000000000000030300000000000008074
:104CA0000000000000008060000000000000804064
:104CB000201008000001020408102000404040407D
:104CC00040404000040404040404040000081020D0
:104CD0004080000000201008040201000070480815
:104CE0000808F0000000003036010000C030C8287D
:104CF000E810E0000718272423140B000000C03838
:104D0000E0000000203C23020227382008F88888B1
:104D100088700000203F202020110E00C0300808BD
:104D200008083800071820202010080008F8080894
:104D30000810E000203F202020100F0008F888888D
:104D4000E8081000203F20202320180008F8888859
:104D5000E8081000203F200003000000C0300808D1
:104D60000838000007182020221E020008F808005A
:104D70000008F808203F210101213F20000808F821
:104D8000080800000020203F202000000000080844
:104D9000F8080800C08080807F00000008F888C004
:104DA00028180800203F20012638200008F80800B5
:104DB00000000000203F20202020300008F8F800EC
:104DC000F8F80800203F003F003F200008F830C0FE
:104DD0000008F808203F200007183F00E0100808EE
:104DE0000810E0000F10202020100F0008F808081D
:104DF0000808F000203F210101010000E010080830
:104E00000810E0000F18242438504F0008F8888854
:104E100088887000203F2000030C30200070880834
:104E2000080838000038202121221C00180808F842
:104E3000080818000000203F2000000008F80800C3
:104E40000008F808001F202020201F000878880094
:104E500000C83808000007380E010000F80800F804
:104E60000008F800033C0700073C030008186880AE
:104E70008068180820302C03032C30200838C80024
:104E8000C83808000000203F200000001008080873
:104E9000C83808002038262120201800000000FE15
:104EA000020202000000007F40404000000C30C0C1
:104EB00000000000000000010638C00000020202ED
:104EC000FE000000004040407F000000000004029F
:104ED00002020400000000000000000000000000CA
:104EE00000000000808080808080808000020204BA
:104EF00000000000000000000000000000008080B2
:104F0000808000000019242222223F2008F800801F
:104F100080000000003F112020110E0000000080E2
:104F200080800000000E1120202011000000008071
:104F30008088F800000E112020103F2000008080A3
:104F400080800000001F222222221300008080F0B7
:104F5000888888180020203F2020000000008080E2
:104F600080808000006B94949493600008F8008027
:104F700080800000203F210000203F200080989882
:104F8000000000000020203F2020000000000080E2
:104F90009898000000C08080807F000008F8000022
:104FA00080808000203F24022D302000000808F877
:104FB000000000000020203F202000008080808032
:104FC00080808000203F20003F20003F80800080C4
:104FD00080800000203F210000203F2000008080D2
:104FE00080800000001F202020201F008080008083
:104FF0008000000080FFA12020110E000000008032
:1050000080808000000E112020A0FF808080800022
:105010008080800020203F2120000100000080804F
:10502000808080000033242424241900008080E044
:10503000808000000000001F202000008080000011
:1050400000808000001F202020103F2080808000F2
:105050000080808000010E30080601008080008002
:10506000008080800F300C030C300F000080800027
:10507000808080000020312E0E3120008080800052
:105080000080808080818E70180601000080808002
:10509000808080000021302C2221300000000000A0
:1050A000807C020200000000003F40400000000041
:1050B000FF00000000000000FF0000000002027C72
:1050C000800000000040403F000000000006010199
:1050D00002020404000000000000000000000000C4
:1050E0000000000001020304060708090000000098
:1050F00001020304030406080C101820300000000D
:105100002051000800000020A00000003E2F0008F1
:10511000C0510008A0000020C80600004E2F000863
:10512000000000000000000000000000000000007F
:10513000000000000000000000000000000000006F
:1051400000000000000000003B2F00083D2F000879
:10515000392F00087F2D00085D2D0008400ECF1963
:105160001408070101000000320000006400000084
:10517000000A100000000100A447000840000000E1
:105180000100000014023569410A01140235694129
:105190000B1114023569410B1214023569410B13CE
:1051A00000000000000000010000000000000000FE
:1051B00000000000040000000100000000002000CA
:04000005080000C12E
:00000001FF
